{
  "contractName": "Bnb",
  "abi": [
    {
      "inputs": [
        {
          "internalType": "uint256",
          "name": "initialSupply",
          "type": "uint256"
        }
      ],
      "stateMutability": "nonpayable",
      "type": "constructor"
    },
    {
      "anonymous": false,
      "inputs": [
        {
          "indexed": false,
          "internalType": "address",
          "name": "p",
          "type": "address"
        },
        {
          "indexed": false,
          "internalType": "uint256",
          "name": "amount",
          "type": "uint256"
        }
      ],
      "name": "Burn",
      "type": "event"
    },
    {
      "anonymous": false,
      "inputs": [
        {
          "indexed": false,
          "internalType": "address",
          "name": "p",
          "type": "address"
        },
        {
          "indexed": false,
          "internalType": "uint256",
          "name": "n",
          "type": "uint256"
        }
      ],
      "name": "Freeze",
      "type": "event"
    },
    {
      "anonymous": false,
      "inputs": [
        {
          "indexed": false,
          "internalType": "address",
          "name": "p",
          "type": "address"
        },
        {
          "indexed": false,
          "internalType": "address",
          "name": "s",
          "type": "address"
        },
        {
          "indexed": false,
          "internalType": "uint256",
          "name": "n",
          "type": "uint256"
        }
      ],
      "name": "IncreaseAllowance",
      "type": "event"
    },
    {
      "anonymous": false,
      "inputs": [
        {
          "indexed": false,
          "internalType": "address",
          "name": "p",
          "type": "address"
        },
        {
          "indexed": false,
          "internalType": "uint256",
          "name": "amount",
          "type": "uint256"
        }
      ],
      "name": "Mint",
      "type": "event"
    },
    {
      "anonymous": false,
      "inputs": [
        {
          "indexed": false,
          "internalType": "address",
          "name": "from",
          "type": "address"
        },
        {
          "indexed": false,
          "internalType": "address",
          "name": "to",
          "type": "address"
        },
        {
          "indexed": false,
          "internalType": "uint256",
          "name": "amount",
          "type": "uint256"
        }
      ],
      "name": "Transfer",
      "type": "event"
    },
    {
      "anonymous": false,
      "inputs": [
        {
          "indexed": false,
          "internalType": "address",
          "name": "from",
          "type": "address"
        },
        {
          "indexed": false,
          "internalType": "address",
          "name": "to",
          "type": "address"
        },
        {
          "indexed": false,
          "internalType": "address",
          "name": "spender",
          "type": "address"
        },
        {
          "indexed": false,
          "internalType": "uint256",
          "name": "amount",
          "type": "uint256"
        }
      ],
      "name": "TransferFrom",
      "type": "event"
    },
    {
      "anonymous": false,
      "inputs": [
        {
          "indexed": false,
          "internalType": "address",
          "name": "p",
          "type": "address"
        },
        {
          "indexed": false,
          "internalType": "uint256",
          "name": "n",
          "type": "uint256"
        }
      ],
      "name": "Unfreeze",
      "type": "event"
    },
    {
      "anonymous": false,
      "inputs": [
        {
          "indexed": false,
          "internalType": "address",
          "name": "p",
          "type": "address"
        },
        {
          "indexed": false,
          "internalType": "uint256",
          "name": "amount",
          "type": "uint256"
        }
      ],
      "name": "WithdrawEther",
      "type": "event"
    },
    {
      "inputs": [
        {
          "internalType": "address",
          "name": "s",
          "type": "address"
        },
        {
          "internalType": "uint256",
          "name": "n",
          "type": "uint256"
        }
      ],
      "name": "approve",
      "outputs": [],
      "stateMutability": "nonpayable",
      "type": "function"
    },
    {
      "inputs": [
        {
          "internalType": "address",
          "name": "to",
          "type": "address"
        },
        {
          "internalType": "uint256",
          "name": "amount",
          "type": "uint256"
        }
      ],
      "name": "transfer",
      "outputs": [],
      "stateMutability": "nonpayable",
      "type": "function"
    },
    {
      "inputs": [],
      "name": "getTotalSupply",
      "outputs": [
        {
          "internalType": "uint256",
          "name": "",
          "type": "uint256"
        }
      ],
      "stateMutability": "view",
      "type": "function"
    },
    {
      "inputs": [
        {
          "internalType": "address",
          "name": "from",
          "type": "address"
        },
        {
          "internalType": "address",
          "name": "to",
          "type": "address"
        },
        {
          "internalType": "uint256",
          "name": "amount",
          "type": "uint256"
        }
      ],
      "name": "transferFrom",
      "outputs": [],
      "stateMutability": "nonpayable",
      "type": "function"
    },
    {
      "inputs": [
        {
          "internalType": "uint256",
          "name": "n",
          "type": "uint256"
        }
      ],
      "name": "freeze",
      "outputs": [],
      "stateMutability": "nonpayable",
      "type": "function"
    },
    {
      "inputs": [
        {
          "internalType": "uint256",
          "name": "n",
          "type": "uint256"
        }
      ],
      "name": "unfreeze",
      "outputs": [],
      "stateMutability": "nonpayable",
      "type": "function"
    },
    {
      "inputs": [
        {
          "internalType": "address",
          "name": "p",
          "type": "address"
        }
      ],
      "name": "getBalanceOf",
      "outputs": [
        {
          "internalType": "uint256",
          "name": "",
          "type": "uint256"
        }
      ],
      "stateMutability": "view",
      "type": "function"
    },
    {
      "inputs": [
        {
          "internalType": "address",
          "name": "p",
          "type": "address"
        },
        {
          "internalType": "address",
          "name": "s",
          "type": "address"
        }
      ],
      "name": "getAllowance",
      "outputs": [
        {
          "internalType": "uint256",
          "name": "",
          "type": "uint256"
        }
      ],
      "stateMutability": "view",
      "type": "function"
    },
    {
      "inputs": [
        {
          "internalType": "uint256",
          "name": "amount",
          "type": "uint256"
        }
      ],
      "name": "withdrawEther",
      "outputs": [],
      "stateMutability": "nonpayable",
      "type": "function"
    },
    {
      "inputs": [
        {
          "internalType": "uint256",
          "name": "amount",
          "type": "uint256"
        }
      ],
      "name": "burn",
      "outputs": [],
      "stateMutability": "nonpayable",
      "type": "function"
    }
  ],
  "bytecode": "0x60806040523480156200001157600080fd5b50604051620019b5380380620019b583398181016040528101906200003791906200034f565b6200004881620000b460201b60201c565b6200005981620000fe60201b60201c565b6200006a816200010160201b60201c565b6200007b816200010a60201b60201c565b6200008c816200015460201b60201c565b6200009c620001e160201b60201c565b620000ad816200028360201b60201c565b5062000381565b60405180604001604052808281526020016001151581525060046000820151816000015560208201518160010160006101000a81548160ff02191690831515021790555090505050565b50565b60003390505050565b60405180604001604052808281526020016001151581525060076000820151816000015560208201518160010160006101000a81548160ff02191690831515021790555090505050565b6000339050604051806040016040528083815260200160011515815250600360008373ffffffffffffffffffffffffffffffffffffffff1673ffffffffffffffffffffffffffffffffffffffff1681526020019081526020016000206000820151816000015560208201518160010160006101000a81548160ff0219169083151502179055509050505050565b600033905060405180604001604052808273ffffffffffffffffffffffffffffffffffffffff16815260200160011515815250600c60008201518160000160006101000a81548173ffffffffffffffffffffffffffffffffffffffff021916908373ffffffffffffffffffffffffffffffffffffffff16021790555060208201518160000160146101000a81548160ff02191690831515021790555090505050565b60003390506040518060400160405280838152602001600115158152506000808373ffffffffffffffffffffffffffffffffffffffff1673ffffffffffffffffffffffffffffffffffffffff1681526020019081526020016000206000820151816000015560208201518160010160006101000a81548160ff0219169083151502179055509050505050565b600080fd5b6000819050919050565b620003298162000314565b81146200033557600080fd5b50565b60008151905062000349816200031e565b92915050565b6000602082840312156200036857620003676200030f565b5b6000620003788482850162000338565b91505092915050565b61162480620003916000396000f3fe608060405234801561001057600080fd5b506004361061009e5760003560e01c80636623fc46116100665780636623fc46146101435780639b96eece1461015f578063a9059cbb1461018f578063c4e41b22146101ab578063d7a78db8146101c95761009e565b8063095ea7b3146100a35780630af4187d146100bf57806323b872dd146100ef5780633bed33ce1461010b57806342966c6814610127575b600080fd5b6100bd60048036038101906100b891906111c6565b6101e5565b005b6100d960048036038101906100d49190611206565b610240565b6040516100e69190611255565b60405180910390f35b61010960048036038101906101049190611270565b610259565b005b610125600480360381019061012091906112c3565b6102b6565b005b610141600480360381019061013c91906112c3565b61030f565b005b61015d600480360381019061015891906112c3565b610368565b005b610179600480360381019061017491906112f0565b6103c1565b6040516101869190611255565b60405180910390f35b6101a960048036038101906101a491906111c6565b6103d8565b005b6101b3610433565b6040516101c09190611255565b60405180910390f35b6101e360048036038101906101de91906112c3565b610447565b005b60006101f183836104a0565b905060001515811515141561023b576040517f08c379a00000000000000000000000000000000000000000000000000000000081526004016102329061137a565b60405180910390fd5b505050565b60008061024d8484610517565b90508091505092915050565b600061026684848461063c565b90506000151581151514156102b0576040517f08c379a00000000000000000000000000000000000000000000000000000000081526004016102a79061137a565b60405180910390fd5b50505050565b60006102c18261073c565b905060001515811515141561030b576040517f08c379a00000000000000000000000000000000000000000000000000000000081526004016103029061137a565b60405180910390fd5b5050565b600061031a826107f3565b9050600015158115151415610364576040517f08c379a000000000000000000000000000000000000000000000000000000000815260040161035b9061137a565b60405180910390fd5b5050565b6000610373826108ab565b90506000151581151514156103bd576040517f08c379a00000000000000000000000000000000000000000000000000000000081526004016103b49061137a565b60405180910390fd5b5050565b6000806103cd83610967565b905080915050919050565b60006103e48383610b09565b905060001515811515141561042e576040517f08c379a00000000000000000000000000000000000000000000000000000000081526004016104259061137a565b60405180910390fd5b505050565b60008061043e610be8565b90508091505090565b600061045282610c16565b905060001515811515141561049c576040517f08c379a00000000000000000000000000000000000000000000000000000000081526004016104939061137a565b60405180910390fd5b5050565b60008033905060006104b28286610517565b9050600081856104c291906113c9565b90506104cf838783610c98565b7f01722f0e92ffd761d4a842cffdd36fe3adb6091e41732a4e714250176b7d8d228387836040516105029392919061140c565b60405180910390a16001935050505092915050565b600080600960008573ffffffffffffffffffffffffffffffffffffffff1673ffffffffffffffffffffffffffffffffffffffff16815260200190815260200160002060008473ffffffffffffffffffffffffffffffffffffffff1673ffffffffffffffffffffffffffffffffffffffff1681526020019081526020016000206000015490506000600660008673ffffffffffffffffffffffffffffffffffffffff1673ffffffffffffffffffffffffffffffffffffffff16815260200190815260200160002060008573ffffffffffffffffffffffffffffffffffffffff1673ffffffffffffffffffffffffffffffffffffffff1681526020019081526020016000206000015490506000828261062e91906113c9565b905080935050505092915050565b600080339050600061064e8683610517565b9050600061065b87610967565b905084811015801561069a5750600073ffffffffffffffffffffffffffffffffffffffff168673ffffffffffffffffffffffffffffffffffffffff1614155b80156106b157508081866106ae9190611443565b10155b80156106bd5750600085115b80156106c95750848210155b1561072d576106d9878487610d33565b6106e4878787610dce565b7f5f7542858008eeb041631f30e6109ae94b83a58e9a58261dd2c42c508850f939878785886040516107199493929190611499565b60405180910390a160019350505050610735565b600093505050505b9392505050565b600080600c60000160009054906101000a900473ffffffffffffffffffffffffffffffffffffffff1690503373ffffffffffffffffffffffffffffffffffffffff168173ffffffffffffffffffffffffffffffffffffffff1614156107e8576107a58184610e22565b7fdb35132c111efe920cede025e819975671cfd1b8fcc1174762c8670c4e94c21181846040516107d69291906114de565b60405180910390a160019150506107ee565b60009150505b919050565b600080339050600061080482610967565b9050600073ffffffffffffffffffffffffffffffffffffffff168273ffffffffffffffffffffffffffffffffffffffff16141580156108435750808411155b1561089f5761085184610e5c565b61085b8285610e7b565b7fcc16f5dbb4873280815c1ee09dbd06736cffcc184412cf7a71a0fdb75d397ca5828560405161088c9291906114de565b60405180910390a16001925050506108a6565b6000925050505b919050565b6000803390506000600d60008373ffffffffffffffffffffffffffffffffffffffff1673ffffffffffffffffffffffffffffffffffffffff1681526020019081526020016000206000015490508084111580156109085750600084115b1561095b576109178285610ed8565b7f2cfce4af01bcb9d6cf6c84ee1b7c491100b8695368264146a94d71e10a63083f82856040516109489291906114de565b60405180910390a1600192505050610962565b6000925050505b919050565b6000806000808473ffffffffffffffffffffffffffffffffffffffff1673ffffffffffffffffffffffffffffffffffffffff1681526020019081526020016000206000015490506000600d60008573ffffffffffffffffffffffffffffffffffffffff1673ffffffffffffffffffffffffffffffffffffffff1681526020019081526020016000206000015490506000600260008673ffffffffffffffffffffffffffffffffffffffff1673ffffffffffffffffffffffffffffffffffffffff1681526020019081526020016000206000015490506000600160008773ffffffffffffffffffffffffffffffffffffffff1673ffffffffffffffffffffffffffffffffffffffff1681526020019081526020016000206000015490506000600360008873ffffffffffffffffffffffffffffffffffffffff1673ffffffffffffffffffffffffffffffffffffffff16815260200190815260200160002060000154905060008483858885610adb9190611443565b610ae591906113c9565b610aef91906113c9565b610af991906113c9565b9050809650505050505050919050565b6000803390506000610b1a82610967565b9050808411158015610b2c5750600084115b8015610b655750600073ffffffffffffffffffffffffffffffffffffffff168573ffffffffffffffffffffffffffffffffffffffff1614155b8015610b7c5750808185610b799190611443565b10155b15610bdb57610b8b8285610eec565b610b958585610f49565b7fddf252ad1be2c89b69c2b068fc378daa952ba7f163c4a11628f55a4df523b3ef828686604051610bc89392919061140c565b60405180910390a1600192505050610be2565b6000925050505b92915050565b600080600a6000015490506000600460000154905060008282610c0b91906113c9565b905080935050505090565b6000803390506000610c2782610967565b9050808411158015610c395750600084115b15610c8c57610c488285610fa5565b7ff97a274face0b5517365ad396b1fdba6f68bd3135ef603e44272adba3af5a1e08285604051610c799291906114de565b60405180910390a1600192505050610c93565b6000925050505b919050565b80600660008573ffffffffffffffffffffffffffffffffffffffff1673ffffffffffffffffffffffffffffffffffffffff16815260200190815260200160002060008473ffffffffffffffffffffffffffffffffffffffff1673ffffffffffffffffffffffffffffffffffffffff1681526020019081526020016000206000016000828254610d279190611443565b92505081905550505050565b80600960008573ffffffffffffffffffffffffffffffffffffffff1673ffffffffffffffffffffffffffffffffffffffff16815260200190815260200160002060008473ffffffffffffffffffffffffffffffffffffffff1673ffffffffffffffffffffffffffffffffffffffff1681526020019081526020016000206000016000828254610dc29190611443565b92505081905550505050565b610dd88282610f49565b610de28382610eec565b7fddf252ad1be2c89b69c2b068fc378daa952ba7f163c4a11628f55a4df523b3ef838383604051610e159392919061140c565b60405180910390a1505050565b8173ffffffffffffffffffffffffffffffffffffffff166108fc829081150290604051600060405180830381858888f19350505050505050565b80600a6000016000828254610e719190611443565b9250508190555050565b80600260008473ffffffffffffffffffffffffffffffffffffffff1673ffffffffffffffffffffffffffffffffffffffff1681526020019081526020016000206000016000828254610ecd9190611443565b925050819055505050565b6000819050610ee78382610fb9565b505050565b80600160008473ffffffffffffffffffffffffffffffffffffffff1673ffffffffffffffffffffffffffffffffffffffff1681526020019081526020016000206000016000828254610f3e9190611443565b925050819055505050565b806000808473ffffffffffffffffffffffffffffffffffffffff1673ffffffffffffffffffffffffffffffffffffffff1681526020019081526020016000206000016000828254610f9a9190611443565b925050819055505050565b6000819050610fb48382611064565b505050565b600081610fc590611511565b90506000611015600d60008673ffffffffffffffffffffffffffffffffffffffff1673ffffffffffffffffffffffffffffffffffffffff1681526020019081526020016000206000015483611106565b905080600d60008673ffffffffffffffffffffffffffffffffffffffff1673ffffffffffffffffffffffffffffffffffffffff1681526020019081526020016000206000018190555050505050565b600081905060006110b7600d60008673ffffffffffffffffffffffffffffffffffffffff1673ffffffffffffffffffffffffffffffffffffffff1681526020019081526020016000206000015483611106565b905080600d60008673ffffffffffffffffffffffffffffffffffffffff1673ffffffffffffffffffffffffffffffffffffffff1681526020019081526020016000206000018190555050505050565b6000808390506000838261111a919061155a565b9050600081905080935050505092915050565b600080fd5b600073ffffffffffffffffffffffffffffffffffffffff82169050919050565b600061115d82611132565b9050919050565b61116d81611152565b811461117857600080fd5b50565b60008135905061118a81611164565b92915050565b6000819050919050565b6111a381611190565b81146111ae57600080fd5b50565b6000813590506111c08161119a565b92915050565b600080604083850312156111dd576111dc61112d565b5b60006111eb8582860161117b565b92505060206111fc858286016111b1565b9150509250929050565b6000806040838503121561121d5761121c61112d565b5b600061122b8582860161117b565b925050602061123c8582860161117b565b9150509250929050565b61124f81611190565b82525050565b600060208201905061126a6000830184611246565b92915050565b6000806000606084860312156112895761128861112d565b5b60006112978682870161117b565b93505060206112a88682870161117b565b92505060406112b9868287016111b1565b9150509250925092565b6000602082840312156112d9576112d861112d565b5b60006112e7848285016111b1565b91505092915050565b6000602082840312156113065761130561112d565b5b60006113148482850161117b565b91505092915050565b600082825260208201905092915050565b7f52756c6520636f6e646974696f6e206661696c65640000000000000000000000600082015250565b600061136460158361131d565b915061136f8261132e565b602082019050919050565b6000602082019050818103600083015261139381611357565b9050919050565b7f4e487b7100000000000000000000000000000000000000000000000000000000600052601160045260246000fd5b60006113d482611190565b91506113df83611190565b9250828210156113f2576113f161139a565b5b828203905092915050565b61140681611152565b82525050565b600060608201905061142160008301866113fd565b61142e60208301856113fd565b61143b6040830184611246565b949350505050565b600061144e82611190565b915061145983611190565b9250827fffffffffffffffffffffffffffffffffffffffffffffffffffffffffffffffff0382111561148e5761148d61139a565b5b828201905092915050565b60006080820190506114ae60008301876113fd565b6114bb60208301866113fd565b6114c860408301856113fd565b6114d56060830184611246565b95945050505050565b60006040820190506114f360008301856113fd565b6115006020830184611246565b9392505050565b6000819050919050565b600061151c82611507565b91507f800000000000000000000000000000000000000000000000000000000000000082141561154f5761154e61139a565b5b816000039050919050565b600061156582611507565b915061157083611507565b9250817f7fffffffffffffffffffffffffffffffffffffffffffffffffffffffffffffff038313600083121516156115ab576115aa61139a565b5b817f80000000000000000000000000000000000000000000000000000000000000000383126000831216156115e3576115e261139a565b5b82820190509291505056fea2646970667358221220a9a285c49fb8f486d048f9ac712a41d46478ec58ab5472d4f39244b495b2eca764736f6c634300080c0033",
  "immutableReferences": {},
  "source": "contract Bnb {\n  struct TotalOutTuple {\n    uint n;\n    bool _valid;\n  }\n  struct TotalMintTuple {\n    uint n;\n    bool _valid;\n  }\n  struct AllMintTuple {\n    uint n;\n    bool _valid;\n  }\n  struct SpentTotalTuple {\n    uint m;\n    bool _valid;\n  }\n  struct TotalInTuple {\n    uint n;\n    bool _valid;\n  }\n  struct TotalBurnTuple {\n    uint n;\n    bool _valid;\n  }\n  struct OwnerTuple {\n    address p;\n    bool _valid;\n  }\n  struct FreezeOfTuple {\n    uint n;\n    bool _valid;\n  }\n  struct FreezeSumTuple {\n    uint m;\n    bool _valid;\n  }\n  struct AllowanceTotalTuple {\n    uint m;\n    bool _valid;\n  }\n  struct TotalBalancesTuple {\n    uint m;\n    bool _valid;\n  }\n  struct AllBurnTuple {\n    uint n;\n    bool _valid;\n  }\n  mapping(address=>TotalInTuple) totalIn;\n  mapping(address=>TotalOutTuple) totalOut;\n  mapping(address=>TotalBurnTuple) totalBurn;\n  mapping(address=>TotalMintTuple) totalMint;\n  AllMintTuple allMint;\n  mapping(address=>mapping(address=>AllowanceTotalTuple)) allowanceTotal;\n  TotalBalancesTuple totalBalances;\n  mapping(address=>mapping(address=>SpentTotalTuple)) spentTotal;\n  AllBurnTuple allBurn;\n  OwnerTuple owner;\n  mapping(address=>FreezeOfTuple) freezeOf;\n  FreezeSumTuple freezeSum;\n  event TransferFrom(address from,address to,address spender,uint amount);\n  event Burn(address p,uint amount);\n  event Mint(address p,uint amount);\n  event WithdrawEther(address p,uint amount);\n  event IncreaseAllowance(address p,address s,uint n);\n  event Unfreeze(address p,uint n);\n  event Freeze(address p,uint n);\n  event Transfer(address from,address to,uint amount);\n  constructor(uint initialSupply) public {\n    updateAllMintOnInsertConstructor_r9(initialSupply);\n    updateTotalSupplyOnInsertConstructor_r5(initialSupply);\n    updateBalanceOfOnInsertConstructor_r4(initialSupply);\n    updateTotalBalancesOnInsertConstructor_r25(initialSupply);\n    updateTotalMintOnInsertConstructor_r32(initialSupply);\n    updateOwnerOnInsertConstructor_r7();\n    updateTotalInOnInsertConstructor_r30(initialSupply);\n  }\n  function approve(address s,uint n) public    {\n      bool r29 = updateIncreaseAllowanceOnInsertRecv_approve_r29(s,n);\n      if(r29==false) {\n        revert(\"Rule condition failed\");\n      }\n  }\n  function transfer(address to,uint amount) public    {\n      bool r8 = updateTransferOnInsertRecv_transfer_r8(to,amount);\n      if(r8==false) {\n        revert(\"Rule condition failed\");\n      }\n  }\n  function getTotalSupply() public view  returns (uint) {\n      uint n = totalSupply();\n      return n;\n  }\n  function transferFrom(address from,address to,uint amount) public    {\n      bool r14 = updateTransferFromOnInsertRecv_transferFrom_r14(from,to,amount);\n      if(r14==false) {\n        revert(\"Rule condition failed\");\n      }\n  }\n  function freeze(uint n) public    {\n      bool r24 = updateFreezeOnInsertRecv_freeze_r24(n);\n      if(r24==false) {\n        revert(\"Rule condition failed\");\n      }\n  }\n  function unfreeze(uint n) public    {\n      bool r6 = updateUnfreezeOnInsertRecv_unfreeze_r6(n);\n      if(r6==false) {\n        revert(\"Rule condition failed\");\n      }\n  }\n  function getBalanceOf(address p) public view  returns (uint) {\n      uint n = balanceOf(p);\n      return n;\n  }\n  function getAllowance(address p,address s) public view  returns (uint) {\n      uint n = allowance(p,s);\n      return n;\n  }\n  function withdrawEther(uint amount) public    {\n      bool r23 = updateWithdrawEtherOnInsertRecv_withdrawEther_r23(amount);\n      if(r23==false) {\n        revert(\"Rule condition failed\");\n      }\n  }\n  function burn(uint amount) public    {\n      bool r16 = updateBurnOnInsertRecv_burn_r16(amount);\n      if(r16==false) {\n        revert(\"Rule condition failed\");\n      }\n  }\n  function updateTransferOnInsertRecv_transfer_r8(address r,uint n) private   returns (bool) {\n      address s = msg.sender;\n      uint m = balanceOf(s);\n      if(n<=m && n>0 && r!=address(0) && n+m>=m) {\n        updateTotalOutOnInsertTransfer_r20(s,n);\n        updateTotalInOnInsertTransfer_r31(r,n);\n        emit Transfer(s,r,n);\n        return true;\n      }\n      return false;\n  }\n  function updateTotalInOnInsertConstructor_r30(uint n) private    {\n      address s = msg.sender;\n      totalIn[s] = TotalInTuple(n,true);\n  }\n  function updateTotalOutOnInsertTransfer_r20(address p,uint n) private    {\n      totalOut[p].n += n;\n  }\n  function updateOwnerOnInsertConstructor_r7() private    {\n      address s = msg.sender;\n      owner = OwnerTuple(s,true);\n  }\n  function updateIncreaseAllowanceOnInsertRecv_approve_r29(address s,uint n) private   returns (bool) {\n      address o = msg.sender;\n      uint m = allowance(o,s);\n      uint d = n-m;\n      updateAllowanceTotalOnInsertIncreaseAllowance_r33(o,s,d);\n      emit IncreaseAllowance(o,s,d);\n      return true;\n      return false;\n  }\n  function updateFreezeOfOnIncrementTotalUnfreeze_r12(address p,int u) private    {\n      int _delta = int(-u);\n      uint newValue = updateuintByint(freezeOf[p].n,_delta);\n      freezeOf[p].n = newValue;\n  }\n  function updateTotalUnfreezeOnInsertUnfreeze_r13(address p,uint n) private    {\n      int delta0 = int(n);\n      updateFreezeOfOnIncrementTotalUnfreeze_r12(p,delta0);\n  }\n  function updateAllowanceTotalOnInsertIncreaseAllowance_r33(address o,address s,uint n) private    {\n      allowanceTotal[o][s].m += n;\n  }\n  function updateTransferFromOnInsertRecv_transferFrom_r14(address o,address r,uint n) private   returns (bool) {\n      address s = msg.sender;\n      uint k = allowance(o,s);\n      uint m = balanceOf(o);\n      if(m>=n && r!=address(0) && n+m>=m && n>0 && k>=n) {\n        updateSpentTotalOnInsertTransferFrom_r22(o,s,n);\n        updateTransferOnInsertTransferFrom_r1(o,r,n);\n        emit TransferFrom(o,r,s,n);\n        return true;\n      }\n      return false;\n  }\n  function updateSendOnInsertWithdrawEther_r3(address p,uint n) private    {\n      payable(p).send(n);\n  }\n  function updateFreezeOnInsertRecv_freeze_r24(uint n) private   returns (bool) {\n      address p = msg.sender;\n      uint m = balanceOf(p);\n      if(n<=m && n>0) {\n        updateTotalFreezeOnInsertFreeze_r0(p,n);\n        emit Freeze(p,n);\n        return true;\n      }\n      return false;\n  }\n  function updateBurnOnInsertRecv_burn_r16(uint n) private   returns (bool) {\n      address p = msg.sender;\n      uint m = balanceOf(p);\n      if(p!=address(0) && n<=m) {\n        updateAllBurnOnInsertBurn_r28(n);\n        updateTotalBurnOnInsertBurn_r17(p,n);\n        emit Burn(p,n);\n        return true;\n      }\n      return false;\n  }\n  function updateFreezeOfOnIncrementTotalFreeze_r12(address p,int f) private    {\n      int _delta = int(f);\n      uint newValue = updateuintByint(freezeOf[p].n,_delta);\n      freezeOf[p].n = newValue;\n  }\n  function updateTotalBurnOnInsertBurn_r17(address p,uint n) private    {\n      totalBurn[p].n += n;\n  }\n  function totalSupply() private view  returns (uint) {\n      uint b = allBurn.n;\n      uint m = allMint.n;\n      uint n = m-b;\n      return n;\n  }\n  function updateTotalInOnInsertTransfer_r31(address p,uint n) private    {\n      totalIn[p].n += n;\n  }\n  function updateTransferOnInsertTransferFrom_r1(address o,address r,uint n) private    {\n      updateTotalInOnInsertTransfer_r31(r,n);\n      updateTotalOutOnInsertTransfer_r20(o,n);\n      emit Transfer(o,r,n);\n  }\n  function updateSpentTotalOnInsertTransferFrom_r22(address o,address s,uint n) private    {\n      spentTotal[o][s].m += n;\n  }\n  function updateUnfreezeOnInsertRecv_unfreeze_r6(uint n) private   returns (bool) {\n      address p = msg.sender;\n      uint m = freezeOf[p].n;\n      if(n<=m && n>0) {\n        updateTotalUnfreezeOnInsertUnfreeze_r13(p,n);\n        emit Unfreeze(p,n);\n        return true;\n      }\n      return false;\n  }\n  function updateAllBurnOnInsertBurn_r28(uint n) private    {\n      allBurn.n += n;\n  }\n  function updateTotalFreezeOnInsertFreeze_r0(address p,uint n) private    {\n      int delta0 = int(n);\n      updateFreezeOfOnIncrementTotalFreeze_r12(p,delta0);\n  }\n  function updateuintByint(uint x,int delta) private   returns (uint) {\n      int convertedX = int(x);\n      int value = convertedX+delta;\n      uint convertedValue = uint(value);\n      return convertedValue;\n  }\n  function updateTotalSupplyOnInsertConstructor_r5(uint n) private    {\n      // Empty()\n  }\n  function allowance(address o,address s) private view  returns (uint) {\n      uint l = spentTotal[o][s].m;\n      uint m = allowanceTotal[o][s].m;\n      uint n = m-l;\n      return n;\n  }\n  function updateAllMintOnInsertConstructor_r9(uint n) private    {\n      allMint = AllMintTuple(n,true);\n  }\n  function updateBalanceOfOnInsertConstructor_r4(uint n) private    {\n      address s = msg.sender;\n      // Empty()\n  }\n  function updateWithdrawEtherOnInsertRecv_withdrawEther_r23(uint n) private   returns (bool) {\n      address p = owner.p;\n      if(p==msg.sender) {\n        updateSendOnInsertWithdrawEther_r3(p,n);\n        emit WithdrawEther(p,n);\n        return true;\n      }\n      return false;\n  }\n  function updateTotalMintOnInsertConstructor_r32(uint n) private    {\n      address s = msg.sender;\n      totalMint[s] = TotalMintTuple(n,true);\n  }\n  function balanceOf(address p) private view  returns (uint) {\n      uint i = totalIn[p].n;\n      uint f = freezeOf[p].n;\n      uint m = totalBurn[p].n;\n      uint o = totalOut[p].n;\n      uint n = totalMint[p].n;\n      uint s = (((n+i)-m)-o)-f;\n      return s;\n  }\n  function updateTotalBalancesOnInsertConstructor_r25(uint n) private    {\n      totalBalances = TotalBalancesTuple(n,true);\n  }\n}",
  "sourcePath": "/Users/ljy/Desktop/PENN/2023_summer/boon_dsc/smart_contracts_evaluation/contracts/bnb/bnb1.sol",
  "compiler": {
    "name": "solc",
    "version": "0.8.12+commit.f00d7308.Emscripten.clang"
  },
  "schemaVersion": "3.4.16",
  "updatedAt": "2024-02-05T04:05:39.577Z",
  "devdoc": {
    "kind": "dev",
    "methods": {},
    "version": 1
  },
  "userdoc": {
    "kind": "user",
    "methods": {},
    "version": 1
  }
}